:0400000080312E28F5
:100008007E14803120007F08F1008B1A0B1D102808
:1000180085310C25803129280B1F29282100111E24
:100028001E282000111E1E285E088A005D080A008E
:10003800803129282100911E29282000911E292875
:100048005C088A005B080A00803171082000FF0004
:100058007E10090080313028853194258031EE00EA
:10006800FA01FB01203084000030850031308531F1
:1000780040258031A030840000308500083085316B
:1000880040257E1020008431CE2C20004003031D23
:1000980070293F08031D702908302100A80028088E
:1000A8002000BD00702985318E258031003A031962
:1000B80008000F308431FE242000C001C00ABD01B1
:1000C800BD0A080085318E258031003A03190800E1
:1000D8008431EF248031013A031D79280230210050
:1000E800A80028082000BD00080008302100A8004A
:1000F80028082000BD00080085318E258031003A8F
:1001080003190800833151238031553A031D932880
:1001180003302100A80028082000BD00080008308E
:100128002100A80028082000BD00080085318E2580
:100138008031003A031908008331512380312100AE
:10014800A80028082000C1004108843137248031E4
:10015800003A031DB62808302100A800280820000E
:10016800BD000800F201F20A2000410882315C2239
:1001780080312100A80028082000CB004B03031D74
:10018800DA2802302100A8002808F20020004108DF
:1001980082315C222100A90029082000CC0004300B
:1001A8002100A80028082000BD0008008531792515
:1001B80006302100A80028082000BD00080085316D
:1001C8008E258031003A031908008331512380318C
:1001D8002100A80020003C08013E413E860087011E
:1001E80021002808810020004C082100A800A9014E
:1001F800A81BA9030130AA002A082000BC07210077
:100208002908803A803C031D0C29280820003C025C
:10021800031C08002000BC0105302100A8002808A4
:100228002000BD00080085318E258031003A031971
:1002380008008331512380312100A80028082000BC
:10024800CA0042302100A8002808F20020004C080B
:1002580083312723803120004A0603193A290830C0
:100268002100A80028082000BD0008000730210050
:10027800A80028082000BD00080041088131F021AD
:10028800803107302100A80028082000BD005A0846
:100298008A0059080A00813185316A258031200099
:1002A800BC01C0010030F200F3000D30F400003052
:1002B800F500413084311D24803123009E1C6929BA
:1002C800853174252000BD01080009302100A800EF
:1002D80028082000BD0008003D0884000A300402F8
:1002E8000318080084310435A83E82000800F30092
:1002F8007308F2007208F400F41C8429013085297F
:100308000030F200741C8A2901308B2900307206F3
:1003180003199029741791297413741D95290130B4
:1003280096290030F200741F9B2901309C29003067
:1003380072060319A1297417A2297413741EA62919
:100348000130A7290030F200741FAC290130AD2913
:10035800003072060319B2297417B3297413F41DF7
:10036800B7290130B8290030F200F41CBD2901304A
:10037800BE29003072060319C329F417C429F413DF
:10038800741EC8290130C9290030F200F41FCE2993
:100398000130CF29003072060319D429F417D52962
:1003A800F413F41ED9290130DA290030F200F41FC1
:1003B800DF290130E029003072060319E529F41716
:1003C800E629F4130310F41F0314031CED29F41792
:1003D800EE29F413740808002000E7005808EA0022
:1003E8005708E9003F30E4006408E705E8016108C0
:1003F80068020318102A690884006A088500000842
:1004080067060319102A0430E9070030EA3D013075
:10041800E4006408E807FB296A08E5006908E400C5
:1004280001306407840065080318650A8500000820
:10043800E6006608CB006A08E5006908E4000230B7
:100448006407840065080318650A85000008E6004B
:100458006608CC000130413E8600870120006A080A
:10046800E5006908E40003306407840065080318A0
:10047800650A8500003F840085014C08E6001200EB
:100488001E00E60B432A42302000E4006408F20014
:100498004C088331272381312000E5006508CA0014
:1004A8004230E4006408F8004C088331BD2308009A
:1004B800F50020005808F8005708F7003F30F3000F
:1004C8007308F505F601610876020318AA2A770869
:1004D800840078088500000875060319AA2A0430E4
:1004E800F7070030F83D6108FF3EF300FF300318BE
:1004F8000030F400760873067404031D852A023060
:1005080008000130F3007308F607672A77088400AB
:1005180078088500000808007808F4007708F300D8
:1005280001307307840074080318740A85000008F2
:1005380008007808F4007708F30002307307840095
:1005480074080318740A8500000808007208003A45
:1005580003198A2A013A0319902A033A03199D2A92
:10056800B52A0230080021009112F530F20002305D
:10057800F300853152258231210011120030F2003A
:100588000430F30085314C258231083023009F0068
:1005980090309D0024309E00CF309B009C01963007
:1005A800F2000530F30085315E2582318730F20094
:1005B8000530F3008531582582319130F20005303D
:1005C800F300853164252000B801BB01BA01083069
:1005D800F4007408DF00FB01FA01B901210091164B
:1005E80008007B08203E86008701810123001D1D2D
:1005F800082B7B08203E86008701811420005408C0
:100608008A0053080A00833123009D1C162B7B089F
:10061800203E860087010115200052088A005108F3
:100628000A0083317B08203E8600870101080319F0
:10063800242B21002C088A002B080A00833108008B
:10064800843166240800F400F601F701F501740806
:10065800750203184D2B720886008701010876077A
:10066800F60077080318770AF7000130F3007308DB
:10067800F20701307702003003197602031C482B79
:10068800FF30F6020030F73B0130F3007308F5073E
:100698002B2BF609F70976080800F3012000390822
:1006A8000319522B7A08203E860087010108F200C0
:1006B8007208B8007A08283E860087010108F2000F
:1006C8007208F3000130F2007208FA0708307A0263
:1006D8000318FA012100911201302000B90221000B
:1006E80091167308080065308331DF2383312000B9
:1006F800E4006408ED008A2B34304E06031D872B76
:1007080022000E14080022000E10080020006D08B8
:10071800003A0319992B013A0319992B033A031943
:10072800992B013A0319802B992B0800F30020001C
:100738005F0803199B2B2100111AA62B73082300AD
:100748009A00BA2B11127308F20020003B08303EC1
:1007580086008701720881000130F2007208BB0729
:1007680008303B020318BB010130DF0221001116DB
:1007780008002000E200E301620863020318D42B9A
:1007880063087807F9007908860087010108833132
:100798009A2383310130F90079082000E307C02B40
:1007A8007808F9007908F200620883312723833139
:1007B80083319A2308002000E20041083F39F900FC
:1007C8007908E3006208860087010130413E840011
:1007D80085010830F90012001E00F90BEF2B0030DC
:1007E800F200F3000D30F4000030F50041308431A0
:1007F8001D24200063080800083020005F02031849
:100808001A2C3A08303E86008701010823009A0016
:100818000130F00070082000BA0708303A020318C7
:10082800BA010130F0007008DF070800210011123A
:100838000800F8007808F6007608F7000130F4029E
:100848000030F53B740A0319750A03190800720889
:10085800F600770886008701760881000130F600E7
:100868007608F707222CF900F201F20A790882319A
:100878005C228431023A031D432C003008007908B9
:100888003F3981317B2184317906031D4D2C01309C
:10089800080000300800F90075082000D800740826
:1008A800D7007908F8007808E1007708DA007608B8
:1008B800D90085316A2584318531742584318531A3
:1008C8003925080023001908F0007B08283E860017
:1008D8008701700881000130F0007008FB070830BC
:1008E8007B020318FB010130F00070082000B907F3
:1008F800080022008C018E013F3021008C003F301F
:100908008E000F3023008E0017308C0024008C01DD
:100918008E012100951722009D019E0108002100EB
:100928001508C039123895000630200095000630A9
:10093800F4007408E0000B118B169530F2000530B6
:10094800F300853146250800803157288031662814
:100958008031802880319A288031E3288131172915
:100968008131412981314B298131502981316129D6
:1009780084317D2484318531322584318531832544
:1009880084318431932484318231B7228431853192
:100998001A2508008431BC24843121000E1022005D
:1009A8000E1085311A2584318031492084318331F4
:1009B80077238431D82C0034013401345034013485
:1009C800013401344F34023400340834A034033481
:1009D800013401344E34833151238431003A031DEC
:1009E800FC2C85318B258431891CFC2C01300800B6
:1009F80000300800F4007408F30073082000EE00CB
:100A0800003085316F2500002000BF01BF0A0800B3
:100A18000B112000600895005508560403190800BA
:100A280056088A0055080A0085310800DF30F400AE
:100A38008430F5007730F6000330F7000430843155
:100A48004F2408000130F00070082000BE076E082F
:100A58003E02031C080085317E2508007230210003
:100A6800990098012200960108002630F20005300E
:100A7800F300853146250800640080010131890BA7
:100A8800412D003473082000D6007208D5000800F4
:100A980073082000DE007208DD00080073082000DB
:100AA800DC007208DB00080073082000D20072081E
:100AB800D100080073082000D4007208D300080091
:100AC80073082100AC007208AB0008000000200089
:100AD800BE01BF010800F20072082000950008005E
:100AE80023001D1621009116080023001D12210065
:100AF8009112080000002000BE01BF010800163056
:100B080021009700080023001D121D160800200070
:100B180038080800200039080800843166240800D5
:060B28000A340800080079
:020000040001F9
:04000E00E4FFFFFE0E
:00000001FF
